:04000000FEEF3FF0E0
:100D000000560F000000000000000000000000007E
:100D100000000000000000000000000000020000D1
:100D2000FF00024000000000000EBE6E000EBF6E0D
:100D3000000EC06E000E0401026F000E0A6F000E5E
:100D4000126F0B0EC66E600EC76EDB0EC86E370ECE
:100D5000006F000E086FF80E106F000E016F000E8E
:100D6000096F000E116F370E036FF00E0B6F1369D2
:100D70003F0E046FF00E0C6F1469000E0201876FB6
:100D8000000E866F0E0E6B6F1C0E0D6F0C0E056F36
:100D90000D0E066F0A0E166F0D0E6A6F1B0E0E6F8C
:100DA000000E0401056F000E066F000E076F000EA7
:100DB0000D6F000E0E6F000E0F6F000E156F000E00
:100DC000166F000E176F1200000E6F6E020E706E1F
:100DD000000E716E7268F90E736E000E746E000E66
:100DE000756E000E766E000E776E000E796E000E38
:100DF0007A6E7D0E7B6E000E7C6E7D0E7D6EB89CD5
:100E0000B89E76907692AD9EAD9C000E136E000E4D
:100E1000146ED8EC07F0000E136E000E146ED3ECB7
:100E200007F0000E136E000E146EDDEC07F0800E5E
:100E3000786E1200000E606E020E616E000E626E21
:100E40006368F90E646E000E656E000E666E000E2D
:100E5000676E000E686E000E6A6E000E6B6E7D0E81
:100E60006C6E000E6D6E7D0E6E6EB79CB79E6790B9
:100E70006792AC9EAC9C000E136E000E146EE7ECF5
:100E800007F0000E136E000E146EE2EC07F0000E79
:100E9000136E000E146EECEC07F0800E696E1200FB
:100EA0009CEC07F0C79E000E0401096F000E0A6F4C
:100EB000CF8E030E146EE80E136E84EC07F0CF9EF7
:100EC000030E146EE80E136E84EC07F058EF07F073
:100ED000FEEF3FF0D69AB490D680000E136E000E4F
:100EE000146EFBEC07F0B990D682000E136E000E64
:100EF000146EF6EC07F0BD90D684000E136E000E53
:100F0000146EF1EC07F012008EEF07F0150E156E5F
:100F1000C60EE82EFED7152EFCD700D01306D8A09B
:100F20001406132806E11428D8A499EF07F09BEFC4
:100F300007F086EF07F01200BAEC07F094EC06F029
:100F4000C8EC07F01AEC07F0E4EC06F0ABEC07F0A5
:100F50006AEC07F01200AB94AB92AB90000E00016C
:100F6000846F000E856F000E866F000E896F000E75
:100F70008C6F1200600E0001AD6F000EAF6F000E9F
:100F8000B36F080EB16F000EB06F000EAC6F1200A1
:100F9000A00E00017F6F330E7D6F1200000EF86E01
:100FA000000150EF07F013C509F514C50AF512004A
:100FB00013C50BF514C50CF5120013C507F514C5C0
:100FC00008F5120013C50FF514C510F5120013C56E
:100FD00011F514C512F5120013C50DF514C50EF563
:100FE000120013C501F514C502F5120013C503F56F
:100FF00014C504F5120013C505F514C506F5120055
:047FFC00CEEF07F0CD
:020000040030CA
:090000008FFFF7FF9FFFFFFFFFD8
:00000001FF
