:04000000FEEF3FF0E0
:100D00000076350000000000000000000000000038
:100D100000000000000000000000000000020000D1
:100D2000FF0002400000003C6C3636CF0750B9840B
:100D300088083CABAA2ABEA3858832DA0FC93F8354
:100D4000F9223F0000003F179ACC373F04B6BA9F04
:100D5000AA2A3D000000BFDB0FC940E4CB9640DB70
:100D60000F4940DB0FC93F008685848484858586D2
:100D7000858585858686878685848383848587891E
:100D80008A8A8B8A8A8989888787878889898988D6
:100D900087878684817F7D7D7E7F7F7D7B7A797961
:100DA00079787775726F6F72767A7A7774727273F8
:100DB00072706E6C6D6F727474747473716D6A6836
:100DC000696A696868696B6C6C6A6A6B6C6D6C6A7D
:100DD00068686B6F737473737476787879797B7DD8
:100DE0007F828486898B8B89878484858788898A9A
:100DF0008B8C8D8D8C8C8C8A87848280818284867A
:100E0000878786848383838383828283848586879E
:100E100087878787868687898C8E8F8E8D8C8C8D31
:100E20008E8E8E8D8C8C8C8D8D8C8C8C8C8B8B8AFD
:100E30008A89898887868584848485858584848554
:100E40008686858483838383828384858788888854
:100E5000878787878685858586878786848383833A
:100E600082807E7C7D7D7D7C7B7A79797A797876CB
:100E700073706F6F73787A797673737473726F6D42
:100E80006B6C6F727373737373706D6A696A6A6A7D
:100E90006968696B6D6D6C6C6D6D6C6A69686A6EA2
:100EA00072747474747678797979797B7D7F8284B1
:100EB00087898A8A878584848586868787898A8ABE
:100EC0008B8B8B8B898683818081838587898887BB
:100ED00085858586868685858688898A8A8B8B8B9B
:100EE0008A89898A8C8F9191908E8D8D8F8F8F8E2C
:100EF0008D8C8C8B8B8A8A8B8B8C8B89898889884B
:100F000087858381808183848584848485858483A7
:100F1000828181818282838586878888878686858B
:100F200085848585878888878685848483817E7D7E
:100F30007D7E7F7F7E7C7B7A7A7A7977757271701D
:100F4000707377797976737272716F6D6B6A6A6C90
:100F50006F71727171706D696665656667676769E3
:100F60006B6B6B6A6A6B6C6B6968696C70757878AF
:100F70007878797A7B7B7C7D7F818386898C8D8E66
:100F80008C8A888787878888898A8C8C8C8C8C8CC3
:100F90008C8A868381818182848687888785848400
:100FA000848485848484858688898A8A8A898787D7
:100FB000888B8E90918F8D8D8E8F90908F8E8D8D52
:100FC0008D8D8C8B8C8D8D8D8C8B8B8B8A89878571
:100FD00083828283848586868584848281818282DD
:100FE00082818081828485868684838383838382D1
:100FF000828384858583828180807F7D7C7B7A7BF0
:101000007C7C7C7B7978777777767573716E6E727E
:10101000777B7B7875747373716F6C6B6C6E7274A5
:1010200075747372706C6968686A6B6B6C6D6E6EE8
:101030006D6C6C6D6D6D6D6D6E70727578797978A3
:10104000787979797A7B7D7F81838688898A898896
:10105000868482828384858788888889898A8A8829
:101060008482807F8081848789898785848485853F
:1010700085858687888A8C8D8C8B8B8A8A8A8B8ED5
:101080009193939190909091919191908F8F8E8D5B
:101090008C8C8D8E8E8D8C8B8A8A8A8886848382B6
:1010A0008282838484848381807F7F7F80807F7E2F
:1010B0007D7E80818282818080808080808181822B
:1010C00083838382807F7F807F7F7E7D7C7D7E7F28
:1010D0007E7C7B7A7B7B7B7A787675737171757B8E
:1010E0007F7F7B76737272706E6C6B6C70747574CC
:1010F0007372706D6A6766686A6B6B6A6A6B6B6B3A
:101100006A6B6C6D6D6E6D6D6E70737677767676DC
:1011100078797A7A7B7D7E808284868889898785C2
:101120008382838486868789898A8B8C8C8B898647
:101130008483838486888B8C8D8B8A898889898A2D
:101140008B8B8C8D8E90908F8E8E8D8D8D8E9193BE
:1011500094949291908F8F9090908F8E8D8C8B8B9A
:101160008B8C8B8B8A8988888786858381807F801A
:101170008182828180807F7E7E7D7D7D7D7E7E7E80
:101180007E7F808080807F7F7F8081818283838358
:10119000838281807F808181807F7F7F7E7E7D7D55
:1011A0007C7B7B7C7B7A7977767572706F72787DC9
:1011B0007D7973706F706E6C6A696B6D707271702F
:1011C0006E6D6B686666686A6B6A69696A6C6C6C7E
:1011D0006B6C6D6E6F6F70717376797A7978787ADF
:1011E0007C7D7E7F8082838587898B8B8B8A8987B4
:1011F00087878889898A8B8B8C8C8D8E8E8C8A8749
:1012000085858587898B8C8C8B89878788898A8A55
:101210008A898A8B8D8E8E8D8C8B8B8B8C8E909108
:1012200091908F8E8D8E8E8F8E8D8C8B8A8A8A8AEE
:101230008A89898786858584848382807F7D7D7D78
:101240007E7F7F7E7D7C7B7A7A7A7B7B7C7C7C7BDD
:101250007C7C7D7D7D7D7D7D7E80818181808080A7
:101260008080808081818281807E7D7D7E7F7E7D89
:101270007C7C7C7C7C7B7978777573727274797DE9
:101280007E7A75707071716F6D6B6B6C6F7273724B
:10129000706E6D6B6867686A6C6D6C6B6C6D6D6D94
:1012A0006D6E7071717272737476797B7B7A7B7CF0
:1012B0007E8080808080818386898B8D8E8E8C89D4
:1012C0008786878788898A8B8C8D8E8F908E8C8974
:1012D00087868687898A8C8D8D8B8988898B8C8B74
:1012E0008B8A8A8C8E8F8F8E8C8C8C8C8C8D8E8F33
:1012F00090908F8D8B8B8C8E8E8D8B8A898989882F
:101300008785858585848282828282817F7D7C7CBF
:101310007C7D7D7D7C7B7A7A7A797A7B7C7C7C7B18
:101320007B7B7B7D7D7D7C7C7D7E808181808080E0
:10133000808180808081838382817F7E7E7F807FA9
:101340007E7D7D7E7E7D7C7A797876747373767A05
:101350007D7D7873707071716F6D6C6C6E70727171
:101360007170706E6B69686A9BC5B1F59CC5B2F50A
:101370009DC5B3F59EC5B4F50501B4BFC2EF09F034
:10138000C5EF09F0010EC6EF09F0000EA86FB49F7B
:10139000DB0EB15D0F0EB259490EB3593F0EB45971
:1013A000D8B0D5EF09F0D7EF09F000EF0AF0800EC2
:1013B000B35D390EB459D8B0E0EF09F0E2EF09F0AF
:1013C000ECEF09F09BC59BF59CC59CF59DC59DF573
:1013D0009EC59EF53AEF0CF09BC551F59CC552F5A4
:1013E0009DC553F59EC554F562EC14F051C59BF5AF
:1013F00052C59CF553C59DF554C59EF53AEF0CF0CA
:10140000D20EB15D530EB2597B0EB359400EB45992
:10141000D8B00DEF0AF00FEF0AF0F2EF0AF0E40E89
:10142000B15DCB0EB259160EB359400EB459D8B0B7
:101430001CEF0AF01EEF0AF08CEF0AF0A851D8B4A6
:1014400024EF0AF026EF0AF05EEF0AF0DB0E456E9D
:101450000F0E466EC90E476E3F0E486E9BC541F596
:101460009CC542F59DC543F59EC544F53BEC0CF08B
:1014700041C5A9F542C5AAF543C5ABF544C5ACF5D0
:10148000A9C551F5AAC552F5ABC553F5ACC554F580
:101490007BEC15F051C578F552C579F553C57AF551
:1014A00054C57BF55BEC1AF078C59BF579C59CF5C6
:1014B0007AC59DF57BC59EF53AEF0CF09BC541F5CD
:1014C0009CC542F59DC543F59EC544F5DB0E456EB2
:1014D0000F0E466EC90E476EBF0E486E3BEC0CF009
:1014E00041C5A9F542C5AAF543C5ABF544C5ACF560
:1014F000A9C551F5AAC552F5ABC553F5ACC554F510
:101500007BEC15F051C59BF552C59CF553C59DF577
:1015100054C59EF53AEF0CF0A851D8A492EF0AF00A
:1015200094EF0AF0BAEF0AF0DB0E456E0F0E466E2E
:10153000490E476EC00E486E9BC541F59CC542F5ED
:101540009DC543F59EC544F53BEC0CF041C578F5CF
:1015500042C579F543C57AF544C57BF55BEC1AF0D5
:1015600078C59FF579C5A0F57AC5A1F57BC5A2F52B
:10157000DEEF0AF0DB0E456E0F0E466E490E476E2B
:10158000400E486E9BC541F59CC542F59DC543F58F
:101590009EC544F53BEC0CF041C578F542C579F5A4
:1015A00043C57AF544C57BF55BEC1AF078C59FF529
:1015B00079C5A0F57AC5A1F57BC5A2F59FC551F502
:1015C000A0C552F5A1C553F5A2C554F562EC14F0BF
:1015D00051C59BF552C59CF553C59DF554C59EF567
:1015E0003AEF0CF0D60EB15D310EB259E20EB3599E
:1015F000400EB459D8B0FFEF0AF001EF0BF0A2EFA4
:101600000BF0E00EB15DED0EB259AF0EB359400EC6
:10161000B459D8B00EEF0BF010EF0BF050EF0BF009
:10162000A851D8B416EF0BF018EF0BF034EF0BF015
:101630009BC541F59CC542F59DC543F59EC544F546
:10164000E40E456ECB0E466E960E476E400E486E0B
:101650003BEC0CF041C5A9F542C5AAF543C5ABF575
:1016600044C5ACF578EF0AF0E40E456ECB0E466E3D
:10167000960E476EC00E486E9BC541F59CC542F55F
:101680009DC543F59EC544F53BEC0CF041C5A9F55D
:1016900042C5AAF543C5ABF544C5ACF540EF0AF029
:1016A000A851D8A456EF0BF058EF0BF074EF0BF0E5
:1016B0009BC541F59CC542F59DC543F59EC544F5C6
:1016C000DB0E456E0F0E466EC90E476EC00E486E9D
:1016D0003BEC0CF041C5A3F542C5A4F543C5A5F507
:1016E00044C5A6F58EEF0BF09BC541F59CC542F5B0
:1016F0009DC543F59EC544F5DB0E456E0F0E466E47
:10170000C90E476E400E486E3BEC0CF041C5A3F588
:1017100042C5A4F543C5A5F544C5A6F5A3C551F535
:10172000A4C552F5A5C553F5A6C554F562EC14F051
:1017300051C59BF552C59CF553C59DF554C59EF505
:101740003AEF0CF0800EB35D7F0EB459D8A0ABEF2A
:101750000BF0ADEF0BF0BFEF0BF0FF0EB113FF0E70
:10176000B213FF0EB313000EB413B1C59BF5B2C58F
:101770009CF5B3C59DF5B4C59EF53AEF0CF09BC53D
:101780007CF59CC57DF59DC57EF59EC57FF5AD0EAE
:10179000806F050E816FB0EC10F005017C51030BDA
:1017A000A76F2BEF0CF0ADC578F5AEC579F5AFC5D9
:1017B0007AF5B0C57BF55BEC1AF078C5ADF579C567
:1017C000AEF57AC5AFF57BC5B0F5ADC551F5AEC583
:1017D00052F5AFC553F5B0C554F562EC14F051C5E0
:1017E0009BF552C59CF553C59DF554C59EF53AEF42
:1017F0000CF0ADC551F5AEC552F5AFC553F5B0C54A
:1018000054F57BEC15F051C59BF552C59CF553C5BD
:101810009DF554C59EF53AEF0CF0ADC551F5AEC53A
:1018200052F5AFC553F5B0C554F57BEC15F051C575
:1018300078F552C579F553C57AF554C57BF55BEC5F
:101840001AF078C59BF579C59CF57AC59DF57BC5E1
:101850009EF53AEF0CF0A751000AD8B4E5EF0BF073
:10186000010AD8B4F9EF0BF0030AD8B4D3EF0BF0A8
:101870000DEF0CF012004450800B4D6E4450442488
:101880004F6E43AE46EF0CF048EF0CF049EF0CF012
:101890004F804F50D8B44FEF0CF051EF0CF066EF83
:1018A0000CF04F28D8A457EF0CF059EF0CF061EF73
:1018B0000CF0000E416E000E426E000E436E000EE4
:1018C000446E438E000E446E6EEF0CF0000E416EBF
:1018D000000E426E000E436E000E446E4850800BA8
:1018E0004E6E4D504E18D8B478EF0CF07AEF0CF0E5
:1018F0007BEF0CF04D8C485048244E6E47AE83EF82
:101900000CF085EF0CF086EF0CF04E804E50D8B402
:101910008CEF0CF08EEF0CF0A3EF0CF04E28D8A457
:1019200094EF0CF096EF0CF09EEF0CF0000E456E6D
:10193000000E466E000E476E000E486E478E000E7B
:10194000486EABEF0CF0000E456E000E466E000EBA
:10195000476E000E486E4F504E5CD8B0B2EF0CF0A0
:10196000B4EF0CF0DBEF0CF04DACB9EF0CF0BBEFCB
:101970000CF0BDEF0CF0800E4D1A4FC550F54EC562
:101980004FF550C54EF541C550F545C541F550C51B
:1019900045F542C550F546C542F550C546F543C527
:1019A00050F547C543F550C547F544C550F548C502
:1019B00044F550C548F5000E506E4F504EC549F5E0
:1019C0004A6A495E000E4A5A4ABEF0EF0CF04A508D
:1019D00009E11A0E495CD8A0F0EF0CF0F2EF0CF020
:1019E00029EF0DF04150421043104410D8A4FBEFF2
:1019F0000CF0FEEF0CF0010EFFEF0CF0000E506E3D
:101A0000000E416E000E426E000E436E000E446EDC
:101A10004EC54FF532EF0DF050A011EF0DF013EF62
:101A20000DF019EF0DF0D89050300109506E1BEFFA
:101A30000DF0D890503241A020EF0DF022EF0DF0C4
:101A400023EF0DF0508E443444324332423241325F
:101A50004F2A4E504F5CD8A030EF0DF032EF0DF012
:101A60000CEF0DF04DBC37EF0DF039EF0DF079EFC5
:101A70000DF04F50D8A43FEF0DF041EF0DF04BEFBC
:101A80000DF0000E416E000E426E000E436E000E11
:101A9000446E9AEF0EF04550412646504222475080
:101AA00043224850442244A058EF0DF05AEF0DF065
:101AB00006EF0EF050A05FEF0DF061EF0DF067EF55
:101AC0000DF0D89050300109506E69EF0DF0D890AC
:101AD000503241A06EEF0DF070EF0DF071EF0DF090
:101AE000508E443444324332423241324F2A06EF60
:101AF0000EF04550415C46504258475043584450C0
:101B0000800A496E4850800A4958D8B08AEF0DF0D3
:101B10008CEF0DF0B7EF0DF04150455C496E42502F
:101B200046584A6E435047584B6E445048584C6E86
:101B3000FF0E4924416EFF0E4A20426EFF0E4B20DD
:101B4000436EFF0E4C20446E800E4D1A506C505068
:101B5000D8A4ADEF0DF0AFEF0DF0BFEF0DF0010E1B
:101B60004126000E422243224422BFEF0DF0455091
:101B7000415E4650425A4750435A4850445A415099
:101B8000421043104410D8A4C8EF0DF0CAEF0DF076
:101B9000FFEF0DF05050D8A4D0EF0DF0D2EF0DF0C4
:101BA000FFEF0DF0000E416E000E426E000E436E10
:101BB000000E446E9AEF0EF0D8904136423643360E
:101BC000443650AEE6EF0DF0E8EF0DF0E9EF0DF022
:101BD000418050A0EEEF0DF0F0EF0DF0F4EF0DF0BE
:101BE000D8805036F6EF0DF0D89050364F50D8B41C
:101BF000FCEF0DF0FEEF0DF0FFEF0DF04F0643AEE2
:101C000004EF0EF006EF0EF0DCEF0DF0000E4E6E5E
:101C100050AE0DEF0EF00FEF0EF027EF0EF050C5A7
:101C200049F57F0E4916D8B418EF0EF01AEF0EF0F2
:101C30001EEF0EF0010E4E6E27EF0EF041A023EFC7
:101C40000EF025EF0EF027EF0EF01AEF0EF04E50CB
:101C5000D8B42DEF0EF02FEF0EF05AEF0EF0010E6C
:101C60004126000E42224322442244A03AEF0EF0C5
:101C70003CEF0EF05AEF0EF041C549F542C54AF56A
:101C800043C54BF544C54CF54C344C324B324A32CB
:101C9000493249C541F54AC542F54BC543F54CC5E6
:101CA00044F54F28D8B457EF0EF059EF0EF05AEF25
:101CB0000EF04F2A4F28D8B460EF0EF062EF0EF00E
:101CC0006AEF0EF04F50D8A468EF0EF06AEF0EF0F6
:101CD0007CEF0EF0000E416E000E426E000E436E61
:101CE000000E446E4F50D8A478EF0EF07AEF0EF04D
:101CF0007CEF0EF0000E4D6E4FA081EF0EF083EFE3
:101D00000EF086EF0EF0438E87EF0EF0439ED890D4
:101D10004F30446E4DAE8FEF0EF091EF0EF092EF1C
:101D20000EF0448E41C541F542C542F543C543F529
:101D300044C544F512001250800B1B6E1250122441
:101D4000216E11AEA6EF0EF0A8EF0EF0A9EF0EF087
:101D500021802150D8B4AFEF0EF0B1EF0EF0C4EFF8
:101D60000EF02128D8A4B7EF0EF0B9EF0EF0C1EFB6
:101D70000EF0000E0F6E000E106E000E116E000EB3
:101D8000126E118ECCEF0EF0000E0F6E000E106E64
:101D9000000E116E000E126E1650800B1B1A16509C
:101DA0001624206E15AED7EF0EF0D9EF0EF0DAEF55
:101DB0000EF020802050D8B4E0EF0EF0E2EF0EF0ED
:101DC000F5EF0EF02028D8A4E8EF0EF0EAEF0EF0C1
:101DD000F2EF0EF0000E136E000E146E000E156E74
:101DE000000E166E158EFDEF0EF0000E136E000E37
:101DF000146E000E156E000E166E2050D8B403EF50
:101E00000FF005EF0FF00DEF0FF02150D8A40BEFFE
:101E10000FF00DEF0FF017EF0FF0000E0F6E000E2A
:101E2000106E000E116E000E126EAFEF10F0155016
:101E30000F02F3C426F5F4C427F526501C6E1D6A64
:101E40001E6A1F6A2750226E236A246A256A14506C
:101E50001002F3C426F5F4C427F526501C26000E04
:101E60001D221E221F2227502226000E232224225A
:101E7000252213501102F3C426F5F4C427F5265089
:101E80001C26000E1D221E221F2227502226000E75
:101E90002322242225221EC51FF51DC51EF51CC5A3
:101EA0001DF51C6A13501002F3C426F5F4C427F57F
:101EB00026501C2627501D22000E1E22000E1F2217
:101EC00014500F02F3C426F5F4C427F526501C263F
:101ED00027501D22000E1E22000E1F221EC51FF5B8
:101EE0001DC51EF51CC51DF51C6A13500F02F3C459
:101EF00026F5F4C427F526501C2627501D22000E77
:101F00001E22000E1F2215501002F3C426F5F4C441
:101F100027F52650222627502322000E2422000EC9
:101F2000252214501102F3C426F5F4C427F52650D7
:101F3000222627502322000E2422000E252215508F
:101F40001102F3C426F5F4C427F52650176E275066
:101F5000186E196A1A6A19C51AF518C519F517C540
:101F600018F5176A175022261850232219502422D8
:101F70001A5025221CC517F51DC518F51EC519F5E3
:101F80001FC51AF5190ECAEF0FF0D8901A32193280
:101F900018321732E82EC5EF0FF0175022261850CE
:101FA0002322195024221A5025221EC51FF51DC5B3
:101FB0001EF51CC51DF51C6A205021C517F5186AB1
:101FC0001726000E1822820E1724266EFF0E1820E8
:101FD000276E00EF10F0D8902236233624362536AF
:101FE0001FAEF5EF0FF0F7EF0FF0F8EF0FF02280D4
:101FF000D8901C361D361E361F362606D8A027065A
:1020000024AE05EF10F007EF10F0EBEF0FF0000E2D
:10201000206E1FAE0EEF10F010EF10F034EF10F046
:10202000FF0E1C14176EFF0E1D14186EFF0E1E14EB
:10203000196E7F0E1F141A6E1750181019101A10EF
:10204000D8B425EF10F027EF10F02BEF10F0010EB1
:10205000206E34EF10F022A030EF10F032EF10F0CD
:1020600034EF10F027EF10F02050D8B43AEF10F012
:102070003CEF10F060EF10F0010E2226000E23223C
:102080002422252225A047EF10F049EF10F060EF41
:1020900010F022C517F523C518F524C519F525C577
:1020A0001AF51A341A3219321832173217C522F5B6
:1020B00018C523F519C524F51AC525F5264A272A7A
:1020C00027BE6BEF10F0275008E12628D8A06BEF51
:1020D00010F06DEF10F077EF10F0000E226E000E92
:1020E000236E800E246E7F0E256EA5EF10F027BEA6
:1020F00084EF10F0275006E12604D8B082EF10F0EC
:1021000084EF10F090EF10F0000E226E000E236EA0
:10211000000E246E000E256E000E1B6EA5EF10F053
:1021200026C521F5FF0E2216FF0E23167F0E24165C
:10213000000E251621A09FEF10F0A1EF10F0A2EFE6
:1021400010F0248ED8902130256E1B50251222C508
:102150000FF523C510F524C511F525C512F512009C
:10216000E9C58BF5EAC58CF5EBC58DF5ECC58EF5AB
:102170007CC58BF57DC58CF57EC58DF57FC58EF54F
:1021800005018EBFC6EF10F0C9EF10F0010ECAEFC7
:1021900010F0000E8A6F8E9FDB0E8B5D0F0E8C5938
:1021A000C90E8D594D0E8E59D8B0D9EF10F0DBEF16
:1021B00010F0CAEF11F07CC501F57DC502F57EC5B2
:1021C00003F57FC504F578EC1AF001C593F502C557
:1021D00094F503C595F504C596F5000E456E000E01
:1021E000466E000E476E3F0E486E830E136EF90E5C
:1021F000146E220E156E3F0E166E93C50FF594C524
:1022000010F595C511F596C512F59BEC0EF00FC5AE
:1022100041F510C542F511C543F512C544F53BEC37
:102220000CF041C551F542C552F543C553F544C5BF
:1022300054F5D6EC18F051C597F552C598F553C52D
:1022400099F554C59AF597C501F598C502F599C554
:1022500003F59AC504F5010E7AEC16F001C58FF569
:1022600002C590F503C591F504C592F5DA0E136E1B
:102270000F0E146EC90E156E3F0E166E8FC50FF53C
:1022800090C510F591C511F592C512F59BEC0EF0B5
:102290000FC555F510C556F511C557F512C558F5BA
:1022A00093C551F594C552F595C553F596C554F5AA
:1022B00038EC1AF051C586F552C587F553C588F537
:1022C00054C589F586C551F587C552F588C553F5BE
:1022D00089C554F5A30E136E850E146E880E156E07
:1022E000320E166E8FC50FF590C510F591C511F51C
:1022F00092C512F59BEC0EF00FC555F510C556F5BD
:1023000011C557F512C558F538EC1AF080C5D9F447
:1023100081C5DAF451C5DEF452C5DEF453C5DEF4EE
:1023200054C5DEF405018A51D8B499EF11F09BEF42
:1023300011F0C4EF11F080C5D9F481C5DAF4DEC420
:1023400078F5DEC479F5DEC47AF5DEC47BF55BECA6
:102350001AF080C5D9F481C5DAF4050178C5DEF438
:1023600079C5DEF47AC5DEF47BC5DEF497C55BF58E
:1023700098C55CF55B1E5C1E5B4A5C2A5BC57CF500
:102380005CC57DF594EF12F097C57CF598C57DF599
:1023900094EF12F07CC501F57DC502F57EC503F50D
:1023A0007FC504F578EC1AF001C593F502C594F5E4
:1023B00003C595F504C596F5000E456E000E466EF4
:1023C000000E476E3F0E486E830E136EF90E146EAC
:1023D000220E156E3F0E166E93C50FF594C510F5BF
:1023E00095C511F596C512F59BEC0EF00FC541F59C
:1023F00010C542F511C543F512C544F53BEC0CF090
:1024000041C551F542C552F543C553F544C554F590
:10241000D6EC18F051C597F552C598F553C599F506
:1024200054C59AF597C501F598C502F599C503F508
:102430009AC504F5010E7AEC16F001C58FF502C5B8
:1024400090F503C591F504C592F5DA0E136E0F0EE3
:10245000146EC90E156E3F0E166E8FC50FF590C522
:1024600010F591C511F592C512F59BEC0EF00FC554
:1024700055F510C556F511C557F512C558F593C554
:1024800051F594C552F595C553F596C554F538ECFC
:102490001AF051C586F552C587F553C588F554C560
:1024A00089F586C551F587C552F588C553F589C5A7
:1024B00054F5A30E136E850E146E880E156E320E33
:1024C000166E8FC50FF590C510F591C511F592C523
:1024D00012F59BEC0EF00FC555F510C556F511C55C
:1024E00057F512C558F538EC1AF051C582F552C5AA
:1024F00083F553C584F554C585F580C5D9F481C5E8
:10250000DAF482C5DEF483C5DEF484C5DEF485C565
:10251000DEF405018A51D8B490EF12F092EF12F078
:10252000C4EF11F09BEF11F012002B50800B386EAE
:102530002B502B243F6E2AAEA0EF12F0A2EF12F028
:10254000A3EF12F03F803F50D8B4A9EF12F0ABEFE9
:1025500012F0C0EF12F03F28D8A4B1EF12F0B3EFA1
:1025600012F0BBEF12F0000E286E000E296E000E66
:102570002A6E000E2B6E2A8E000E2B6EC8EF12F004
:10258000000E286E000E296E000E2A6E000E2B6EB5
:102590002F50800B381A2F502F24406E2EAED3EFC1
:1025A00012F0D5EF12F0D6EF12F040804050D8B4C0
:1025B000DCEF12F0DEEF12F0F3EF12F04028D8A4B7
:1025C000E4EF12F0E6EF12F0EEEF12F0000E2C6ED8
:1025D000000E2D6E000E2E6E000E2F6E2E8E000E33
:1025E0002F6EFBEF12F0000E2C6E000E2D6E000E03
:1025F0002E6E000E2F6E2C502D102E102F10D8A4E2
:1026000004EF13F006EF13F01EEF13F0000E286E28
:10261000000E296E000E2A6E000E2B6E800E2A12FE
:102620007F0E2B1238502B1228C528F529C529F505
:102630002AC52AF52BC52BF561EF14F03F50D8A41D
:1026400024EF13F026EF13F030EF13F0000E286E96
:10265000000E296E000E2A6E000E2B6E61EF14F034
:1026600040503FC530F5316A305E000E315A7F0E62
:102670003024396E000E31203A6E28C534F529C554
:1026800035F52AC536F52BC537F5000E286E000E38
:10269000296E000E2A6E000E2B6E000E3B6E000E91
:1026A0003C6E000E3D6E000E3E6E000E406E91EFD1
:1026B00013F04050D8B45FEF13F061EF13F078EFF0
:1026C00013F0D8903436353636363736D89028362B
:1026D00029362A362B363EAE70EF13F072EF13F028
:1026E00073EF13F02880D8903B363C363D363E36AB
:1026F0002C50345C2D5035582E5036582F503758AA
:10270000D8A085EF13F087EF13F090EF13F03E8C15
:102710002C50345E2D50355A2E50365A2F50375A81
:10272000402A190E406497EF13F099EF13F059EF18
:1027300013F03450351036103710D8B4A2EF13F020
:10274000A4EF13F0BCEF13F03B80BCEF13F0D89074
:10275000283629362A362B363EAEB1EF13F0B3EFCA
:1027600013F0B4EF13F02880D8903B363C363D365A
:102770003E363906D8A03A062AAEC1EF13F0C3EFB1
:1027800013F0A7EF13F0000E406E3EAECAEF13F049
:10279000CCEF13F0F0EF13F0FF0E3B14306EFF0E92
:1027A0003C14316EFF0E3D14326E7F0E3E14336EBC
:1027B0003050311032103310D8B4E1EF13F0E3EFA2
:1027C00013F0E7EF13F0010E406EF0EF13F028A0C6
:1027D000ECEF13F0EEEF13F0F0EF13F0E3EF13F084
:1027E0004050D8B4F6EF13F0F8EF13F01CEF14F0EC
:1027F000010E2826000E29222A222B222BA003EFCD
:1028000014F005EF14F01CEF14F028C530F529C5BD
:1028100031F52AC532F52BC533F533343332323234
:102820003132303230C528F531C529F532C52AF5A7
:1028300033C52BF5394A3A2A3ABE27EF14F03A50FD
:1028400008E13928D8A027EF14F029EF14F034EF6D
:1028500014F0000E3A6E3968000E286E000E296ED4
:10286000000E2A6E000E2B6E3ABE41EF14F03A5065
:1028700006E13904D8B03FEF14F041EF14F04FEF08
:1028800014F0000E3A6E000E396E000E286E000E27
:10289000296E000E2A6E000E2B6E000E386E39C5A2
:1028A0003FF53FA056EF14F058EF14F05BEF14F033
:1028B0002A8E5CEF14F02A9ED8903F302B6E12EFD8
:1028C00013F0120051C50FF552C510F553C511F59F
:1028D00054C512F551C513F552C514F553C515F578
:1028E00054C516F59BEC0EF00FC578F510C579F5BB
:1028F00011C57AF512C57BF578C50FF579C510F5C8
:102900007AC511F57BC512F578C513F579C514F5AF
:102910007AC515F57BC516F59BEC0EF00FC564F571
:1029200010C565F511C566F512C567F53C0E136E49
:102930006C0E146E360E156E360E166E78C50FF5CB
:1029400079C510F57AC511F57BC512F59BEC0EF033
:102950000FC541F510C542F511C543F512C544F543
:10296000CF0E456E070E466E500E476EB90E486E7E
:102970003BEC0CF041C560F542C561F543C562F51D
:1029800044C563F578C50FF579C510F57AC511F51D
:102990007BC512F551C513F552C514F553C515F590
:1029A00054C516F59BEC0EF00FC574F510C575F502
:1029B00011C576F512C577F5AB0E456EAA0E466EBB
:1029C0002A0E476EBE0E486E840E136E880E146E6D
:1029D000080E156E3C0E166E78C50FF579C510F50C
:1029E0007AC511F57BC512F59BEC0EF00FC541F5CC
:1029F00010C542F511C543F512C544F53BEC0CF08A
:102A000041C568F542C569F543C56AF544C56BF52E
:102A100064C513F565C514F566C515F567C516F5E6
:102A200074C50FF575C510F576C511F577C512F5A6
:102A30009BEC0EF00FC56CF510C56DF511C56EF56C
:102A400012C56FF551C545F552C546F553C547F555
:102A500054C548F574C513F575C514F576C515F557
:102A600077C516F568C50FF569C510F56AC511F586
:102A70006BC512F59BEC0EF00FC541F510C542F584
:102A800011C543F512C544F53BEC0CF041C570F59A
:102A900042C571F543C572F544C573F570C541F57E
:102AA00071C542F572C543F573C544F560C513F5AC
:102AB00061C514F562C515F563C516F56CC50FF54E
:102AC0006DC510F56EC511F56FC512F59BEC0EF0D6
:102AD0000FC545F510C546F511C547F512C548F5B2
:102AE0003BEC0CF041C551F542C552F543C553F5D9
:102AF00044C554F5120051C50FF552C510F553C524
:102B000011F554C512F551C513F552C514F553C549
:102B100015F554C516F59BEC0EF00FC574F510C5F0
:102B200075F511C576F512C577F574C50FF575C540
:102B300010F576C511F577C512F574C513F575C591
:102B400014F576C515F577C516F59BEC0EF00FC597
:102B500070F510C571F511C572F512C573F5170E34
:102B6000136E9A0E146ECC0E156E370E166E74C55B
:102B70000FF575C510F576C511F577C512F59BEC07
:102B80000EF00FC541F510C542F511C543F512C54C
:102B900044F53F0E456E040E466EB60E476EBA0EF5
:102BA000486E3BEC0CF041C560F542C561F543C58C
:102BB00062F544C563F5000E456E000E466E800E4C
:102BC000476E3F0E486E000E136E000E146E000E20
:102BD000156EBF0E166E74C50FF575C510F576C56A
:102BE00011F577C512F59BEC0EF00FC541F510C538
:102BF00042F511C543F512C544F53BEC0CF041C557
:102C000064F542C565F543C566F544C567F574C509
:102C100013F575C514F576C515F577C516F570C5A8
:102C20000FF571C510F572C511F573C512F59BEC62
:102C30000EF00FC568F510C569F511C56AF512C526
:102C40006BF59F0E136EAA0E146E2A0E156E3D0EB6
:102C5000166E70C50FF571C510F572C511F573C507
:102C600012F59BEC0EF00FC545F510C546F511C5E4
:102C700047F512C548F564C541F565C542F566C519
:102C800043F567C544F53BEC0CF041C56CF542C516
:102C90006DF543C56EF544C56FF56CC541F56DC561
:102CA00042F56EC543F56FC544F560C513F561C5C2
:102CB00014F562C515F563C516F568C50FF569C548
:102CC00010F56AC511F56BC512F59BEC0EF00FC53A
:102CD00045F510C546F511C547F512C548F53BEC5D
:102CE0000CF041C551F542C552F543C553F544C5F5
:102CF00054F51200096E0950D8B481EF16F083EF35
:102D000016F0A5EF16F004BE8AEF16F088EF16F065
:102D1000A5EF16F001C505F502C506F503C507F5D3
:102D200004C508F5051E061E071E081E052A000E0E
:102D300006220722082205C50BF506C50CF507C5B6
:102D40000DF508C50EF5ADEF16F001C50BF502C582
:102D50000CF503C50DF504C50EF501500210031066
:102D60000410D8A4B6EF16F0B8EF16F0C2EF16F0C4
:102D7000000E016E000E026E000E036E000E046E59
:102D800053EF17F0960E0A6ECCEF16F00A2AD89081
:102D90000E320D320C320B32000E0B14056E000E8B
:102DA0000C14066E000E0D14076EFE0E0E14086E47
:102DB0000550061007100810D8A4E1EF16F0E3EF55
:102DC00016F0C6EF16F0F1EF16F00A2A010E0B26E8
:102DD000000E0C220D220E22D8900E320D320C3233
:102DE0000B32000E0B14056E000E0C14066E000E56
:102DF0000D14076EFF0E0E14086E05500610071016
:102E00000810D8A406EF17F008EF17F0E5EF16F05A
:102E100010EF17F00A06D8900B360C360D360E362A
:102E20000DBE15EF17F017EF17F01FEF17F0020E9A
:102E30000A601DEF17F01FEF17F00AEF17F00AB046
:102E400024EF17F026EF17F027EF17F00D9ED8901C
:102E50000A320AC505F5066A076A086A05C508F553
:102E6000076A066A056A05500B1206500C120750D5
:102E70000D1208500E120950D8B441EF17F043EF6D
:102E800017F04BEF17F004BE4AEF17F048EF17F0BA
:102E90004BEF17F00E8E0BC501F50CC502F50DC5F5
:102EA00003F50EC504F51200ACEC1AF0D8EC1AF0DC
:102EB00024EC18F0C79EC79CC79A000E0401096F46
:102EC000000E0A6F000E0501CB6F000ECC6F000ED6
:102ED000CD6F000ECE6F000ECF6F000EC76F000ECD
:102EE000C86F000EC96F000ECA6F000ED46F000EBF
:102EF000D06F000ED16F000ED26F000ED36FD45181
:102F0000C36F000EC3BFFF0EC46FC56FC66FC35142
:102F1000D05DC451D159C551D259C651D359D8B039
:102F200094EF17F096EF17F09BEF17F0CF8ECF8A44
:102F3000CF9C9FEF17F0CF9E200ECF16CF8C010EA7
:102F4000D027000ED123D223D323D351D211D111B4
:102F500009E10B0ED05DD8A0B0EF17F0B2EF17F07B
:102F6000FBEF17F0000ED06F000ED16F000ED26F86
:102F7000000ED36F010EC727000EC823C923CA2332
:102F8000CA51C9110AE1C705200EC859D8A0CBEF14
:102F900017F0CDEF17F0FBEF17F0000EC76F000E24
:102FA000C86F000EC96F000ECA6FCB51D8A4DBEFFB
:102FB00017F0DDEF17F0ECEF17F0D42BD451800AA7
:102FC000750FD8A0E6EF17F0E8EF17F0FBEF17F05A
:102FD000010ECB6FFBEF17F0D407D451800A7F0F9F
:102FE000D8B0F5EF17F0F7EF17F0FBEF17F0000E82
:102FF000CB6FFBEF17F0640ECC25D96E060ECD21FA
:10300000DA6EDF500BEC1BF0010E0501CC27000E31
:10301000CD23CE23CF23CF51CE110AE1CC05060E0E
:10302000CD59D8A016EF18F018EF18F07FEF17F071
:10303000000ECC6F000ECD6F000ECE6F000ECF6F66
:103040007FEF17F0FEEF3FF0000E0501C26F000E9C
:10305000C16F000E2C6E000E2D6EC80E2E6E420E2D
:103060002F6EDB0E136E0F0E146EC90E156E400E12
:10307000166EC1C501F5C2C502F5000E02BEFF0EF7
:10308000036E046E010E7AEC16F001C50FF502C551
:1030900010F503C511F504C512F59BEC0EF00FC534
:1030A00028F510C529F511C52AF512C52BF595ECA3
:1030B00012F028C5B5F529C5B6F52AC5B7F52BC553
:1030C000B8F5B5C59BF5B6C59CF5B7C59DF5B8C5B2
:1030D0009EF5B4EC09F09BC5B9F59CC5BAF59DC544
:1030E000BBF59EC5BCF5000E136EE00E146EFF0E10
:1030F000156E440E166E000E456E000E466E800E66
:10310000476E3F0E486EB9C541F5BAC542F5BBC51D
:1031100043F5BCC544F53BEC0CF041C50FF542C589
:1031200010F543C511F544C512F59BEC0EF00FC523
:10313000BDF510C5BEF511C5BFF512C5C0F5000E31
:103140000501C125D96E060EC221DA6E000E456E4C
:10315000000E466E000E476E450E486EBDC541F529
:10316000BEC542F5BFC543F5C0C544F53BEC0CF008
:1031700041C551F542C552F543C553F544C554F513
:10318000D6EC18F05150DF6E0501C14BC22BC2BF07
:10319000D3EF18F0C25109E1640EC15DD8A0D3EF9E
:1031A00018F0D5EF18F029EF18F01200533454340A
:1031B0005A6E5A50D8A4DFEF18F0E1EF18F0EBEF99
:1031C00018F0000E516E000E526E000E536E000E7F
:1031D000546E58EF19F051C555F552C556F553C503
:1031E00057F554C558F5200EFBEF18F0D89058321B
:1031F000573256325532E82EF6EF18F05550596EC8
:10320000538EFF0E5116FF0E5216FF0E5316000E70
:103210005416960E5A5E5ABE12EF19F010EF19F0BE
:1032200028EF19F05A50800A970FD8B01AEF19F00A
:103230001CEF19F01EEF19F0E1EF18F0D89054329E
:103240005332523251325A3E1EEF19F040EF19F00C
:103250001F0E5A642EEF19F030EF19F038EF19F005
:10326000E1EF18F0D89051365236533654365A069C
:103270005A50D8A43EEF19F040EF19F032EF19F090
:103280005950D8B446EF19F048EF19F050EF19F043
:10329000541E531E521E516C000E522253225422B1
:1032A00051C551F552C552F553C553F554C554F5A2
:1032B0001200000EBE6E000EBF6E000EC06E000E3D
:1032C0000401026F000E0A6F000E126F0B0EC66E25
:1032D000600EC76EDB0EC86E370E006F000E086FF3
:1032E000F80E106F000E016F000E096F000E116FC7
:1032F000370E036FF00E0B6F13693F0E046FF00E65
:103300000C6F1469000E0201876F000E866F0E0E9F
:103310006B6F1C0E0D6F0C0E056F0D0E066F0A0EF7
:10332000166F0D0E6A6F1B0E0E6F000E0401056FF7
:10333000000E066F000E076F000E0D6F000E0E6F71
:10334000000E0F6F000E156F000E166F000E176F38
:103350001200000E6F6E020E706E000E716E7268BB
:10336000F90E736E000E746E000E756E000E766EA2
:10337000000E776E000E796E000E7A6E7D0E7B6EFB
:10338000000E7C6E7D0E7D6EB89CB89E7690769217
:10339000AD9EAD9C000E016E000E026EE3EC1AF0C5
:1033A000000E016E000E026EDEEC1AF0000E016ED1
:1033B000000E026EE8EC1AF0800E786E1200000E1D
:1033C000606E020E616E000E626E6368F90E646ECE
:1033D000000E656E000E666E000E676E000E686E63
:1033E000000E6A6E000E6B6E7D0E6C6E000E6D6EC2
:1033F0007D0E6E6EB79CB79E67906792AC9EAC9C3C
:10340000000E016E000E026EF2EC1AF0000E016E5C
:10341000000E026EEDEC1AF0000E016E000E026E50
:10342000F7EC1AF0800E696E1200680EF66E0D0E43
:10343000F76E000EF86E01EE64F211EE00F2090074
:10344000F5C4EEF4E550E150FAE1E250F8E101EEA6
:1034500000F2640EEE6AE806FDE101EEE5F1080E09
:10346000EE6AE806FDE1000EF86E000154EF17F079
:10347000000E551A000E561A000E571A800E581AD2
:1034800051C541F552C542F553C543F554C544F500
:1034900055C545F556C546F557C547F558C548F5D0
:1034A0003BEC0CF041C551F542C552F543C553F50F
:1034B00044C554F512000501785179117A117B1138
:1034C000D8B465EF1AF067EF1AF06FEF1AF0000E3C
:1034D000781B000E791B000E7A1B800E7B1B78C5B3
:1034E00078F579C579F57AC57AF57BC57BF5120053
:1034F000E5C505F5E6C506F5E7C507F5E8C508F530
:1035000001C505F502C506F503C507F504C508F5AF
:10351000089E05C501F506C502F507C503F508C5F2
:1035200004F51200D69AB490D680000E016E000EFB
:10353000026E06EC1BF0B990D682000E016E000EF2
:10354000026E01EC1BF0BD90D684000E016E000EE1
:10355000026EFCEC1AF01200CAEC1AF059EC19F0E9
:10356000D8EC1AF0DFEC19F0A9EC19F0BBEC1AF06A
:1035700092EC1AF01200AB94AB92AB90000E0001EB
:10358000846F000E856F000E866F000E896F000E2F
:103590008C6F1200600E0001AD6F000EAF6F000E59
:1035A000B36F080EB16F000EB06F000EAC6F12005B
:1035B000A00E00017F6F330E7D6F120001C5DDF597
:1035C00002C5DEF5120001C5DFF502C5E0F5120007
:1035D00001C5DBF502C5DCF5120001C5E3F502C546
:1035E000E4F5120001C55DF502C55EF5120001C5E6
:1035F000E1F502C5E2F5120001C5D5F502C5D6F523
:10360000120001C5D7F502C5D8F5120001C5D9F5DC
:0E36100002C5DAF51200016E01C57DF0120050
:047FFC0015EF1AF073
:020000040030CA
:090000008FFFF7FF9FFFFFFFFFD8
:00000001FF
