:04000000FEEF3FF0E0
:100D000000F00F00000000000000000000000000E4
:100D100000000000000000000000000000020000D1
:100D2000FF00024000000000E9EC07F0C79EC79CEE
:100D3000C79A000E0401096F000E0A6F000E196EAB
:100D4000000E156E000E166E000E176E000E186E59
:100D5000000E1B6E000E1A6E1A50D880D8841BAE7F
:100D60001B5CD8A0D884D8B4B8EF06F0BAEF06F070
:100D7000BFEF06F0CF8ECF8ACF9CC3EF06F0CF9E99
:100D8000200ECF16CF8C1A2A0A0E1A64CAEF06F06C
:100D9000CCEF06F0ACEF06F0000E1A6E010E152631
:100DA000000E162217221822185017100AE11504F7
:100DB000200E1658D8A0DFEF06F0E1EF06F0ACEFFA
:100DC00006F0000E156E000E166E000E176E000E69
:100DD000186E1950D8A4EFEF06F0F1EF06F000EF0F
:100DE00007F01B2A1B50800A750FD8A0FAEF06F0F7
:100DF000FCEF06F00FEF07F0010E196EACEF06F0F6
:100E00001B061B50800A7F0FD8B009EF07F00BEFCD
:100E100007F00FEF07F0000E196EACEF06F0ACEF25
:100E200006F0FEEF3FF0000EBE6E000EBF6E000E2D
:100E3000C06E000E0401026F000E0A6F000E126FEA
:100E40000B0EC66E600EC76EDB0EC86E370E006FDF
:100E5000000E086FF80E106F000E016F000E096F84
:100E6000000E116F370E036FF00E0B6F13693F0EFC
:100E7000046FF00E0C6F1469000E0201876F000EF4
:100E8000866F0E0E6B6F1C0E0D6F0C0E056F0D0E28
:100E9000066F0A0E166F0D0E6A6F1B0E0E6F000E98
:100EA0000401056F000E066F000E076F000E0D6F38
:100EB000000E0E6F000E0F6F000E156F000E166FF6
:100EC000000E176F1200000E6F6E020E706E000E95
:100ED000716E7268F90E736E000E746E000E756E90
:100EE000000E766E000E776E000E796E000E7A6E32
:100EF0007D0E7B6E000E7C6E7D0E7D6EB89CB89E66
:100F000076907692AD9EAD9C000E136E000E146E20
:100F100025EC08F0000E136E000E146E20EC08F0A5
:100F2000000E136E000E146E2AEC08F0800E786E20
:100F30001200000E606E020E616E000E626E63683B
:100F4000F90E646E000E656E000E666E000E676E22
:100F5000000E686E000E6A6E000E6B6E7D0E6C6E7B
:100F6000000E6D6E7D0E6E6EB79CB79E6790679299
:100F7000AC9EAC9C000E136E000E146E34EC08F0A8
:100F8000000E136E000E146E2FEC08F0000E136EA0
:100F9000000E146E39EC08F0800E696E1200D69ABD
:100FA000B490D680000E136E000E146E48EC08F05C
:100FB000B990D682000E136E000E146E43EC08F04A
:100FC000BD90D684000E136E000E146E3EEC08F039
:100FD000120007EC08F013EC07F015EC08F099ECA0
:100FE00007F063EC07F0F8EC07F0CFEC07F0120025
:100FF000AB94AB92AB90000E0001846F000E856F36
:10100000000E866F000E896F000E8C6F1200600E4E
:101010000001AD6F000EAF6F000EB36F080EB16F21
:10102000000EB06F000EAC6F1200A00E00017F6FBB
:10103000330E7D6F1200000EF86E000194EF06F083
:1010400013C509F514C50AF5120013C50BF514C52F
:101050000CF5120013C507F514C508F5120013C5E9
:101060000FF514C510F5120013C511F514C512F5CE
:10107000120013C50DF514C50EF5120013C501F5C8
:1010800014C502F5120013C503F514C504F51200CA
:0A10900013C505F514C506F512009E
:047FFC001BEF08F07F
:020000040030CA
:090000008FFFF7FF9FFFFFFFFFD8
:00000001FF
